:020000040000FA
:1000000000200020090100004501000059100000F7
:1000100000000000000000000000000000000000E0
:10002000000000000000000000000000450100008A
:100030000000000000000000450100005D210000FC
:10004000450100000000000000000000000000006A
:10005000000000000000000045010000000000005A
:10006000000000000000000045010000000000004A
:10007000C90F0000450100004501000045010000D6
:10008000450100000000000000000000000000002A
:100090000000000000000000000000000000000060
:1000A00045010000A11D0000450100000000000006
:1000B000352D0000AD2B0000252A00009D280000F2
:1000C00010B5064C2378002B07D1054B002B02D02E
:1000D000044800E000BF0123237010BD0C00002085
:1000E00000000000A4310000044B10B5002B03D029
:1000F0000349044800E000BF10BDC04600000000F6
:1001000010000020A431000009490A4A0A4B9B1A3A
:1001100003DD043BC858D050FBDC0849084A0020E6
:10012000521A02DD043A8850FCDC01F0BFF90000ED
:10013000A8310000000000200C0000200C0000206E
:1001400030050020FEE7C04680B582B000AF314BDD
:10015000DB68DB06DB0FDBB2002B02D0012B08D003
:100160000DE02C4B1B68012B08D12B4B2B4A1A603E
:1001700004E0294BFA22D2011A6000E0C046254B68
:100180001B695B075B0FDBB2072B1CD89A00244B63
:10019000D3181B689F4601237B6015E002237B6018
:1001A00012E004237B600FE008237B600CE0102347
:1001B0007B6009E020237B6006E040237B6003E056
:1001C00080237B6000E0C046134B1B6879681800F1
:1001D00002F0C0FE03001A000F4B1A600E4B1B68A2
:1001E000104A934206D9104B104A1A600E4B104A1F
:1001F0001A600CE0084B1B680E4A934203D90A4B65
:100200000D4A1A6003E0084B0C4A1A60C046BD460E
:1002100002B080BD0000064044000020006CDC02FB
:100220008430000000366E01002006400400FA5AB7
:100230000500FA5A001BB7000300FA5A0000FA5AE8
:1002400080B500AF114B124A1A60104B114A1A6068
:10025000114B01221A60C0460F4B9B6801221340CC
:10026000012BF9D10C4B0022DA60C0460A4BDB6847
:1002700070221340FAD1084B1A7C07218A43111CC3
:1002800001220A431A74C046BD4680BD00200640C4
:100290000400FA5A0500FA5A0000064080B500AF83
:1002A000BFF34F8F034B044ADA60BFF34F8FC04652
:1002B000FDE7C04600ED00E00400FA0590B583B00C
:1002C00000AFFC1D00F0B0FA03002370FB1D1B788B
:1002D000052B1DD89A00124BD3181B689F46114B53
:1002E00001221A700F4B01229A700E4B0E4A9A800F
:1002F0000C4BFA22D200DA8000F018F808E0094B23
:1003000000221A7000F012F802E000F00FF8C04668
:1003100001F0F6F8C046C046BD4603B090BDC046E9
:10032000A4300000C00400208813000080B582B013
:1003300000AFFB1D00221A70C54B1B78012B3CD16E
:10034000C34B9B78012B38D1C24B1B78012B07D1B3
:10035000C04B9B78002B03D1FB1D02221A702BE0AF
:10036000BD4B24229B5C012B08D1BB4B40229B5CE4
:10037000012B03D1FB1D05221A701DE0B64B242270
:100380009B5C012B03D1FB1D03221A709BE0B24B37
:1003900040229B5C012B03D1FB1D04221A7092E0CA
:1003A000AD4B1B7A012B03D1FB1D06221A708AE08C
:1003B000FB1D01221A7086E085E0A74B1B7A012BFA
:1003C0003BD1A44B1B78012B07D1A24B9B78002B70
:1003D00003D1FB1D07221A7075E09D4B1B78012B82
:1003E00007D19B4B9B78002B03D1FB1D08221A7071
:1003F00069E0994B24229B5C012B08D1964B40224B
:100400009B5C012B03D1FB1D0B221A705BE0924B0E
:1004100024229B5C012B03D1FB1D09221A7052E0A0
:100420008D4B40229B5C012B03D1FB1D0A221A70CD
:1004300049E0FB1D01221A7045E0874B24229B5C9A
:10044000012B14D1844B40229B5C012B0FD1814B9B
:100450001B78012B07D17F4B9B78002B03D1FB1D11
:100460000E221A702FE0FB1D01221A702BE07A4B2E
:1004700024229B5C012B0FD1764B1B78012B07D1DB
:10048000744B9B78002B03D1FB1D0C221A701AE0D1
:10049000FB1D01221A7016E06F4B40229B5C012B62
:1004A0000FD16C4B1B78012B07D16A4B9B78002B2B
:1004B00003D1FB1D0D221A7005E0FB1D01221A70ED
:1004C00001E0FFF7EBFE654B1B78FA1D12789A42AC
:1004D00000D173E1FB1D1B780E2B00D96AE19A0055
:1004E0005F4BD3181B689F46002001F0CDF9012017
:1004F00001F0CAF9022001F0C7F95A4B1A8D802188
:1005000049000A431A85574B1A8D802189000A43F6
:100510001A85544B1A8D01210A431A85514B1A8DA5
:1005200002210A431A85012001F0F6F9022001F0A8
:10053000F3F901F070F801F073F83BE1002001F0ED
:10054000A3F9022001F0A0F9464B1A8D01210A43BC
:100550001A85444B1A8D02210A431A85022001F0A4
:10056000DBF901F05DF801F051F8012001F0B2F97A
:10057000394B25229B5C012B0CD13A4B1A8D8021E3
:1005800089000A431A85374B9A8C802149000A4317
:100590009A841DE0304B25229B5C022B0CD1314B01
:1005A0001A8D802149000A431A852E4B9A8C80218E
:1005B00089000A439A840BE02A4B1A8D8021490056
:1005C0000A431A85274B1A8D802189000A431A8510
:1005D000012001F033F9EDE0002001F055F9012090
:1005E00001F052F91F4B1A8D802149000A431A85E8
:1005F0001C4B1A8D802189000A431A85012001F0C5
:100600008BF901F00DF801F001F8022001F062F918
:10061000114B41229B5C012B0AD1124B1A8D0221F6
:100620000A431A850F4B9A8C01210A439A8425E0CC
:10063000094B41229B5C022B16D10A4B1A8D0121DA
:100640000A431A85074B9A8C02210A439A8415E0C3
:10065000C0040020B4040020580000202B0000201B
:10066000BC30000000800440564B1A8D01210A4323
:100670001A85544B1A8D02210A431A85022001F073
:10068000DDF897E0002001F0FFF800F0C9FF00F06E
:10069000BDFF012001F01EF9022001F01BF94A4BB9
:1006A00025229B5C012B0CD1464B1A8D80218900A1
:1006B0000A431A85434B9A8C802149000A439A8445
:1006C0001DE0414B25229B5C022B0CD13D4B1A8D2A
:1006D000802149000A431A853A4B9A8C802189006F
:1006E0000A439A840BE0374B1A8D802149000A4354
:1006F0001A85344B1A8D802189000A431A85324BA2
:1007000041229B5C012B0AD12E4B1A8D02210A43F8
:100710001A852C4B9A8C01210A439A8419E02A4BA2
:1007200041229B5C022B0AD1264B1A8D01210A43E0
:100730001A85244B9A8C02210A439A8409E0214BA2
:100740001A8D01210A431A851E4B1A8D02210A4374
:100750001A85012001F072F8022001F06FF829E0FB
:10076000012001F091F8022001F08EF8154B1A8D4E
:10077000802149000A431A85124B1A8D8021890075
:100780000A431A850F4B1A8D01210A431A850D4B16
:100790001A8D02210A431A85022001F0BDF80220B9
:1007A00001F0BAF800F03CFF00F030FF002001F04B
:1007B00045F8C046054BFA1D12781A70C046BD4672
:1007C00002B080BD00800440580000202B000020B3
:1007D00080B582B000AF0200FB1D1A700F4B1B7872
:1007E0000F2B17D80D4B1B780133DAB20B4B1A7055
:1007F0000B4B1B785A1CD1B2094A11701900094BD6
:10080000FA1D12785A54064B1B780F2B02D9044B51
:1008100000221A70C046BD4602B080BD2A000020EA
:10082000280000204800002080B582B000AFFB1DEA
:1008300000221A70114B1B78002B19D00F4B1B781C
:10084000013BDAB20D4B1A700D4B1B781900FB1DE2
:100850000C4A525C1A700A4B1B780133DAB2084B0F
:100860001A70074B1B780F2B02D9054B00221A7008
:10087000FB1D1B781800BD4602B080BD2A00002079
:10088000290000204800002090B585B000AF02008C
:10089000FB1D1A70FB1D1B78012B3BD0022B00D1D6
:1008A00089E0002B00D0D7E0FB1D1B78180000F07A
:1008B0006DFF6B4AFB1D18781123082101F08CF89D
:1008C000684AFB1D18780823002101F085F80F24E1
:1008D0003B1900221A703A19FB1D187801232F21A9
:1008E00001F07AF821007B1800221A700C007A18A7
:1008F000FB1D18780123302101F06EF821007B18D0
:100900008C221A707A18FB1D187801232E2101F011
:1009100063F8A1E0FB1D1B78180000F037FFFB1DFA
:100920001A7851491300DB009B1A9B00CB1809333E
:100930001B78022B0ED14D4AFB1D1878112308217C
:1009400001F04AF84A4AFB1D18780823002101F0FB
:1009500043F80DE0474AFB1D18781123082101F0E8
:100960003BF8454AFB1D18780823002101F034F8B4
:100970000F243B1900221A703A19FB1D1878012325
:100980002F2101F029F821007B1800221A700C0099
:100990007A18FB1D18780123302101F01DF8210081
:1009A0007B188C221A707A18FB1D187801232E21CF
:1009B00001F012F850E0FB1D1B78180000F0E6FE75
:1009C000FB1D1A7828491300DB009B1A9B00CB18EB
:1009D00009331B78022B0ED1244AFB1D18781123F2
:1009E000082100F0F9FF224AFB1D18780823002196
:1009F00000F0F2FF0DE01F4AFB1D187811230821BB
:100A000000F0EAFF1C4AFB1D18780823002100F0C3
:100A1000E3FF0F243B1900221A703A19FB1D1878C6
:100A200001232F2100F0D8FF21007B1800221A702B
:100A30000C007A18FB1D18780123302100F0CCFF40
:100A400021007B188C221A707A18FB1D187801235C
:100A50002E2100F0C1FFC046C046BD4605B090BD86
:100A600000310000F830000058000020383100004C
:100A7000303100001C3100001431000090B583B00B
:100A800000AF0200FB1D1A70FB1D1A786A491300A3
:100A9000DB009B1A9B00CB1808331B78002B60D01F
:100AA000FB1D1A7864491300DB009B1A9B00CB18CE
:100AB000183300229B5E614A93420BDCFB1D1A78BF
:100AC0005D491300DB009B1A9B00CB180A33002200
:100AD0001A70ACE0FB1D1A7857491300DB009B1A13
:100AE0009B00CB180A331B780133D8B2524913004C
:100AF000DB009B1A9B00CB180A33021C1A70FB1DEB
:100B00001A784D491300DB009B1A9B00CB180A335F
:100B10001B78022B00D88AE0FB1D1A784649130087
:100B2000DB009B1A9B00CB180A3300221A70FB1DB6
:100B30001A7841491300DB009B1A9B00CB1808333D
:100B400000221A70FB1D1A783B491300DB009B1A28
:100B50009B00CB18093300221A700520FFF738FEDE
:100B600065E0FB1D1A7834491300DB009B1A9B00DB
:100B7000CB18183300229B5E304A93424CDCFB1D9D
:100B80001A782D491300DB009B1A9B00CB180A33FF
:100B90001B780133D8B228491300DB009B1A9B0055
:100BA000CB180A33021C1A70FB1D1A782249130055
:100BB000DB009B1A9B00CB180A331B78022B36D91B
:100BC000FB1D1A781C491300DB009B1A9B00CB18F5
:100BD0000A3300221A70FB1D1A7817491300DB0034
:100BE0009B1A9B00CB18083301221A70FB1D1C783E
:100BF000FB1D1B78180000F0ADF9030019000E4A28
:100C00002300DB001B1B9B00D31809330A1C1A703E
:100C10000520FFF7DDFD0AE0FB1D1A7806491300E9
:100C2000DB009B1A9B00CB180A3300221A70C046C7
:100C3000BD4603B090BDC0465800002047030000E9
:100C400080B584B000AF0200FB1D1A70FB1D1A783E
:100C500035491300DB009B1A9B00CB1808331B7827
:100C6000002B5CD0FB1D1A782F491300DB009B1A68
:100C70009B00CB1806331B789AB20E203B18120249
:100C80001A80FB1D1A7828491300DB009B1A9B0071
:100C9000CB1807331B7899B23B183A1812880A43CD
:100CA0001A80FB1D1A7820491300DB009B1A9B0059
:100CB000CB1802331A780D217B1852091A707B1851
:100CC0007A18127807210A401A703B181B88002BEB
:100CD0001ED10D23FB181B78002B06D1FB1D1B78A2
:100CE0000721180000F038FA1AE00D23FB181B78D2
:100CF000072B06D1FB1D1B780521180000F02CFAEC
:100D00000EE0FB1D1B780121180000F025FA07E01A
:100D1000FB1D1B780621180000F01EFA00E0C046FB
:100D2000BD4604B080BDC0465800002090B583B0D9
:100D300000AF854B1B78FC1D0321180002F090F9D1
:100D40000B002370804B1B785A1CD1B27E4A117065
:100D5000092B00D9EDE09A007C4BD3181B689F4605
:100D6000FB1D1B78180000F01BFE031E18D1FB1D95
:100D70001A7877491300DB009B1A9B005B5C002B01
:100D800004D1FB1D1B781800FFF77EFDFB1D1A78B0
:100D90006F491300DB009B1A9B0001225A54C3E0E9
:100DA000FB1D1A786A491300DB009B1A9B00002286
:100DB0005A54FB1D1A7866491300DB009B1A9B00EE
:100DC000CB1808331B78012B00D0ADE0FB1D1A783F
:100DD0005F491300DB009B1A9B00CB180A330022EB
:100DE0001A70FB1D1A785A491300DB009B1A9B00EE
:100DF000CB18083300221A70FB1D1A7854491300CF
:100E0000DB009B1A9B00CB18093300221A70FB1DD4
:100E10001B780021180000F09FF90520FFF7D8FC8F
:100E200082E0FB1D1A784A491300DB009B1A9B00E5
:100E30005B5C012B00D079E0FB1D1A781300DB000E
:100E40009B1A9B0010331A00414BD3181A1DFB1D2F
:100E50001B781100180000F0E9FBFB1D1A78130045
:100E6000DB009B1A9B0010331A00394BD3189A1DD4
:100E7000FB1D1B781100180000F002FCFB1D1A7806
:100E80001300DB009B1A9B0018331A00304BD2185A
:100E9000FB1D1B781100180000F01CFC031E45D13F
:100EA000FB1D1B781800FFF7E9FD3FE0FB1D1A78DA
:100EB00027491300DB009B1A9B005B5C012B37D199
:100EC000FB1D1A781300DB009B1A9B00204A9B181D
:100ED0005A1CFB1D1B781100180000F025FC031E96
:100EE00026D1FB1D1B781800FFF7AAFE20E0FB1D92
:100EF00000221A7013E0FB1D1A7815491300DB005D
:100F00009B1A9B005B5C012B04D1FB1D1B78180016
:100F100000F024FDFB1D1A78FB1D01321A70FB1D29
:100F20001B78022BE7D904E0C04602E0C04600E08F
:100F3000C046054B1B78092B02D9034B00221A70BF
:100F4000C046BD4603B090BD2E0000204C310000CD
:100F500058000020B0B584B000AF0200FB1D1A702D
:100F6000FB1D1B78012B08D0022B11D0002B1AD1AE
:100F70000E23FB18124A1A8015E00E257C190A2050
:100F800001F0AEFF030023807B1900221A800AE0E3
:100F90000E257C19042001F0A3FF030023807B1998
:100FA00000221A80C0460E23FB181B88054A934274
:100FB00001D9022300E001231800BD4604B0B0BDF2
:100FC000FF0F0000B70B000080B582B000AF144BDC
:100FD0009B681B075B0FDBB2022B1DD1114B01225B
:100FE0001A70114B00221A700D4B1B687B600F4B5F
:100FF0001B889BB25A1C91B20C4A11801A007B6864
:10100000D9B20B4B9954094B1B889BB2094A9342A6
:1010100002D9064B00221A80C046BD4602B080BDF0
:1010200000600140AD000020AC0000202C0000203A
:10103000B0000020FF03000080B500AFBFF34F8F6A
:10104000034B044ADA60BFF34F8FC046FDE7C0464A
:1010500000ED00E00400FA0580B500AFFFF7ECFFFB
:10106000C046BD4680BD000080B500AF154B1B7863
:10107000DBB2002B22D0134B00221A7000F0B4FA1E
:10108000FFF754FE00F024F80F4B1B780133DAB25F
:101090000D4B1A700C4B1B78092B08D90A4B0022F8
:1010A0001A700A4B1B780133DAB2084B1A70074BDF
:1010B0001B78092B02D9054B00221A70C046BD4689
:1010C00080BDC0463D000020B1040020B0040020D7
:1010D00080B500AF1B4B1B88002B2FD0194B1B88F2
:1010E000013B9AB2174B1A80164B1B88002B25D157
:1010F000144B32221A80144B1B78002B0FD1124B49
:1011000001221A70114B1A88114B9A620F4B5A88A0
:101110000F4B9A620D4B9A880E4B9A620EE00A4B67
:1011200000221A70094B1A88094B5A62074B5A88D9
:10113000074B5A62054B9A88064B5A62C046BD4619
:1011400080BDC046000000203A000020340000208E
:101150000060044000A0044080B582B000AF0200EF
:10116000FB1D1A70BB1D0A1C1A70FB1D1B781C4A44
:10117000D35CBA1D12789A422DD0FB1D1B78184AF9
:10118000B91D0978D154BB1D1B780B2B24D89A00AC
:10119000144BD3181B689F46FB1D1B78180000F0EA
:1011A00023F819E0FB1D1B78180000F05FF813E02E
:1011B000FB1D1B78180000F09DF80DE0FB1D1B784F
:1011C000180000F0D9F807E0FB1D1B78180000F0AC
:1011D00029F9C04600E0C046BD4602B080BDC04609
:1011E000300000207431000080B582B000AF0200F2
:1011F000FB1D1A70FB1D1B78012B12D0022B1DD07A
:10120000002B00D028E0164B5A6A154BF0218901BB
:101210000A435A62FB1D1A78124B52000021D15228
:101220001AE00F4B5A6A0E4BF0210A435A62FB1D1B
:101230001A780C4B52000021D1520DE00A4B5A6A29
:10124000094BF02109010A435A62FB1D1A78054B2C
:1012500052000021D152C046C046BD4602B080BDFA
:10126000006004403400002000A0044080B582B03B
:1012700000AF0200FB1D1A70FB1D1B78012B13D061
:10128000022B1ED0002B00D02AE0174B9A6A164B77
:10129000E02149010A439A62FB1D1A78134B520060
:1012A00080218901D1521BE00F4B9A6A0E4B7021AD
:1012B0000A439A62FB1D1A780C4B52008021D152CE
:1012C0000EE00B4B9A6A0A4BE021C9000A439A626E
:1012D000FB1D1A78054B520080210901D152C046EE
:1012E000C046BD4602B080BD00600440340000200E
:1012F00000A0044080B582B000AF0200FB1D1A7050
:10130000FB1D1B78012B12D0022B1DD0002B00D00F
:1013100028E0164B9A6A154BF02189010A439A621C
:10132000FB1D1A78124B52000021D1521AE00F4BCC
:101330009A6A0E4BF0210A439A62FB1D1A780C4BF5
:1013400052000021D1520DE00A4B9A6A094BF0215C
:1013500009010A439A62FB1D1A78054B52000021CD
:10136000D152C046C046BD4602B080BD00600440B8
:101370003400002000A0044080B582B000AF02001D
:10138000FB1D1A70FB1D1B78012B19D0022B2AD0D4
:10139000002B00D03CE0204B9A6A1F4BE021490112
:1013A0000A439A621C4B5A6A1B4B802189010A43EB
:1013B0005A62FB1D1A78194B52000021D15227E0C6
:1013C000154B9A6A144B70210A439A62124B5A6A5F
:1013D000114B80210A435A62FB1D1A780F4B5200B1
:1013E0000021D15214E00E4B9A6A0D4BE021C90046
:1013F0000A439A620A4B5A6A094B802109010A433F
:101400005A62FB1D1A78054B52000021D152C0468A
:10141000C046BD4602B080BD0060044034000020DC
:1014200000A0044080B582B000AF0200FB1D1A701E
:10143000FB1D1B78012B13D0022B1ED0002B00D0DC
:101440002AE0174B9A6A164BE02149010A439A6237
:10145000FB1D1A78134B5200F0218901D1521BE079
:101460000F4B9A6A0E4BF0210A439A62FB1D1A78C1
:101470000C4B5200F021D1520EE00B4B9A6A0A4BF2
:10148000F02109010A439A62FB1D1A78054B5200AC
:10149000F0210901D152C046C046BD4602B080BD10
:1014A000006004403400002000A0044080B500AF7C
:1014B000FEF7C6FEFEF748FE142000F0BDFB01F06B
:1014C00041F901F0CBFC00F013F800F05BFD00F0F7
:1014D000FFFD00F07DFC044B044ADA60FFF7C4FD19
:1014E000FEF7ECFEF7E7C04600000140AA55FA5AA5
:1014F00080B500AF0120FFF76BF9C046BD4680BD47
:1015000080B500AF324B00221A70324B1B68DB06ED
:10151000DB0FDBB2002B06D12D4B1B7801221343CE
:10152000DAB22B4B1A702A4B1B7802221343DAB221
:10153000274B1A70264B1A78274B1B789A4208D1F2
:10154000264B1B78002B07D1214B1A78244B1A709D
:1015500002E0224B05221A701D4B1A781E4B1A709E
:101560001F4B1A781F4B1B789A422DD01C4B1A78B0
:101570001C4B1B785340DAB2154B1A70144B1B7876
:101580001A000123134008D0154B1B781A000123C1
:10159000134002D00220FFF71BF90D4B1B781A00F5
:1015A000022313400CD00E4B1B781A000223134069
:1015B00003D00320FFF70CF902E00420FFF708F93D
:1015C000074B1A78074B1A70C046BD4680BDC0460F
:1015D000BC04002000400440C80400200200002099
:1015E0003B0000203C00002080B500AF064B1B787C
:1015F000002B05D0044B1B78013BDAB2024B1A706A
:10160000C046BD4680BDC0460200002080B500AF88
:10161000C046BD4680BD80B500AFC046BD4680BD5A
:1016200080B500AFC046BD4680BD000080B582B029
:1016300000AF02003960FB1D1A70104AFB1D1878BC
:1016400002233B2100F045FA031E11D10B4B1B78FE
:101650001B021AB23B681A803B6800229A5E074B55
:101660005B781BB213431AB23B681A80002300E078
:1016700001231800BD4602B080BDC046CC04002046
:1016800080B582B000AF02003960FB1D1A70104AAD
:10169000FB1D18780223332100F01BFA031E11D121
:1016A0000B4B1B781B021AB23B681A803B68002266
:1016B0009A5E074B5B781BB213431AB23B681A80E1
:1016C000002300E001231800BD4602B080BDC046E3
:1016D000CC04002080B582B000AF02003960FB1D51
:1016E0001A70104AFB1D187802233F2100F0F1F90F
:1016F000031E11D10B4B1B781B021AB23B681A80D8
:101700003B6800229A5E074B5B781BB213431AB208
:101710003B681A80002300E001231800BD4602B098
:1017200080BDC046CC04002080B584B000AF02006C
:101730003960FB1D1A70144AFB1D187807231B2102
:1017400000F0C7F9031E1AD10F23FB1800221A70EC
:101750000EE00F203B181A783B181B783968CB181D
:1017600009498A5C1A703B181A783B1801321A70C2
:101770000F23FB181B78062BEBD9002300E0012375
:101780001800BD4604B080BDCC04002080B582B0F6
:1017900000AF0200FB1D1A70FB1D1B78012B0BD044
:1017A000022B10D0002B00D013E00C4B9A8C802120
:1017B00049010A439A840CE0094B9A8C8021090163
:1017C0000A439A8405E0064B9A8C20210A439A84A6
:1017D000C046C046BD4602B080BDC0460040044081
:1017E0000080044080B582B000AF0200FB1D1A707B
:1017F000FB1D1B78012B0BD0022B10D0002B00D02F
:1018000013E00C4B1A8D802149010A431A850CE024
:10181000094B1A8D802109010A431A8505E0064B00
:101820001A8D20210A431A85C046C046BD4602B023
:1018300080BDC046004004400080044080B582B0B6
:1018400000AF0200FB1D1A700E4AFB1D1878012321
:101850000F2100F03EF90B4B1B7820221343DAB224
:10186000084B1A70074AFB1D187801230F2100F05E
:10187000B3F8FB1D1B781800FFF7B4FFC046BD4648
:1018800002B080BDCC04002080B582B000AF020061
:10189000FB1D1A700E4AFB1D187801230F2100F062
:1018A00018F90B4B1B7820229343DAB2084B1A70BD
:1018B000074AFB1D187801230F2100F08DF8FB1D4E
:1018C0001B781800FFF762FFC046BD4602B080BD1E
:1018D000CC04002080B582B000AF0200FB1D1A705E
:1018E0000C4AFB1D18780123132100F0F2F8094B74
:1018F0001B78802252421343DAB2064B1A70054A13
:10190000FB1D18780123112100F066F8C046BD4682
:1019100002B080BDCC04002080B582B000AF0200D0
:10192000FB1D1A700C4AFB1D18780123132100F0CF
:10193000D0F8094B1B787F221340DAB2064B1A709D
:10194000054AFB1D18780123112100F045F8C04617
:10195000BD4602B080BDC046CC04002080B582B038
:1019600000AF0200FB1D1A700C4AFB1D1878012302
:10197000102100F0AEF8094B1B7808221343DAB2AD
:10198000064B1A70054AFB1D18780123102100F040
:1019900023F8C046BD4602B080BDC046CC0400203E
:1019A00080B582B000AF0200FB1D1A70094AFB1D12
:1019B00018780123482100F08CF8031E05D1054B4F
:1019C0001B78192B01D1002300E001231800BD462C
:1019D00002B080BDCC04002090B585B000AF0400FB
:1019E00008003A601900FB1D221C1A70BB1D021C66
:1019F0001A707B1D0A1C1A700F23FB1800221A7024
:101A00007B1D1B78002B03D10F23FB181B785CE098
:101A1000FB1D1B78180000F0D3FBFB1D1B78D621A3
:101A2000180000F09DFCFB1D1B78180000F02EFC38
:101A3000031E3ED1BB1D1A78FB1D1B781100180038
:101A400000F08EFCFB1D1B78180000F01FFC031E2D
:101A50002AD10E23FB1800221A701DE00E23FB185A
:101A60001B783A68D3181A78FB1D1B7811001800F0
:101A700000F076FCFB1D1B78180000F007FC031E2D
:101A800004D00F23FB1801221A7016E00E217B18D8
:101A90001A787B1801321A700E23FA187B1D1278FF
:101AA0001B789A42DAD308E00F23FB1801221A7040
:101AB00003E00F23FB1801221A70FB1D1B7818008E
:101AC00000F0C2FB0F23FB181B781800BD4605B0C1
:101AD00090BDB0B584B000AF040008003A601900B2
:101AE000FB1D221C1A70BB1D021C1A707B1D0A1CD8
:101AF0001A700F23FB1800221A707B1D1B78002B15
:101B000003D10F23FB181B787FE0FB1D1B78180007
:101B100000F056FBFB1D1B78D621180000F020FCBE
:101B2000FB1D1B78180000F0B1FB031E61D1BB1D2B
:101B30001A78FB1D1B781100180000F011FCFB1D2A
:101B40001B78180000F0A2FB031E4DD1FB1D1B7873
:101B5000180000F04FFBFB1D1B78D721180000F088
:101B6000FFFBFB1D1B78180000F090FB031E36D115
:101B70000E23FB1800221A7016E00E257B191B7825
:101B80003A68D418FB1D1B78180000F031FC0300E4
:101B90002370FB1D1B780021180000F0AFFB7B19A0
:101BA0001A787B1901321A700E23FB181A787B1DE4
:101BB0001B78013B9A42E0DB0E23FB181B783A6846
:101BC000D418FB1D1B78180000F012FC03002370D2
:101BD000FB1D1B780121180000F090FB0DE00F2386
:101BE000FB1801221A7008E00F23FB1801221A705B
:101BF00003E00F23FB1801221A70FB1D1B7818004D
:101C000000F022FB0F23FB181B781800BD4604B020
:101C1000B0BD80B582B000AF78607B684622534388
:101C20007B60C0467B685A1E7A60002BFAD1C046A2
:101C3000BD4602B080BD000080B582B000AF7860C4
:101C400005E0074B074ADA606420FFF7E2FF7B6894
:101C50005A1E7A60002BF4D1C046BD4602B080BD4A
:101C600000000140AA55FA5A80B582B000AF0200C8
:101C7000FB1D1A70FB1D1B781A001F231A40044B12
:101C8000012191400A001A60C046BD4602B080BDE5
:101C900000E100E080B582B000AF0200FB1D1A70C9
:101CA000FB1D1B781A001F231340054901229A408F
:101CB000C0235B00CA50C046BD4602B080BDC046CE
:101CC00000E100E090B583B000AF02003960FB1D79
:101CD0001A70FB1D1B787F2B32D92F4AFB1D1B78F6
:101CE00019000F230B40083B9B0806339B00D318B9
:101CF00004331B68FA1D1278110003220A40D20037
:101D0000FF2191400A00D2431A4011003B689B0119
:101D1000FF221A40FB1D1B78180003230340DB0041
:101D20009A401D48FB1D1B781C000F232340083BD5
:101D30009B080A4306339B00C31804331A6027E04C
:101D4000164AFB1D1B785BB29B08C0339B009B5857
:101D5000FA1D1278110003220A40D200FF2191409F
:101D60000A00D2431A4011003B689B01FF221A402F
:101D7000FB1D1B78180003230340DB009A40074833
:101D8000FB1D1B785BB29B080A43C0339B001A50B3
:101D9000C046BD4603B090BD00ED00E000E100E0AC
:101DA00080B500AF064B074ADA60054B1B68064A50
:101DB0001A40034B05490A431A60C046BD4680BD20
:101DC00000000140AA55FA5AFBFF05A50000FA5A87
:101DD00080B582B000AF104A936810490B40936001
:101DE00000237B607B68042293437B607B680C4A02
:101DF00013437B600B4B7A681A60402000F016F8A2
:101E000000F02CF8074B1A68064B07490A431A6082
:101E1000C046BD4602B080BD00E00540FFFF8FFF19
:101E20000000FA5A000001400100FA5A80B584B05F
:101E300000AF78607B68064A1343FB60054BFA6885
:101E40009A60044B044ADA60C046BD4604B080BDC7
:101E50000000FA5A00000140AA55FA5A80B500AFB6
:101E60001920FFF717FF1920FFF7FEFE00211920A8
:101E7000FFF728FFC046BD4680BD000080B582B098
:101E800000AF0200FB1D1A70FB1D1B781A001F23F8
:101E90001A40044B012191400A001A60C046BD4619
:101EA00002B080BD00E100E090B583B000AF020059
:101EB0003960FB1D1A70FB1D1B787F2B32D92F4A0E
:101EC000FB1D1B7819000F230B40083B9B080633B2
:101ED0009B00D31804331B68FA1D127811000322EB
:101EE0000A40D200FF2191400A00D2431A4011005B
:101EF0003B689B01FF221A40FB1D1B78180003233F
:101F00000340DB009A401D48FB1D1B781C000F237B
:101F10002340083B9B080A4306339B00C318043345
:101F20001A6027E0164AFB1D1B785BB29B08C03382
:101F30009B009B58FA1D1278110003220A40D20020
:101F4000FF2191400A00D2431A4011003B689B01D7
:101F5000FF221A40FB1D1B78180003230340DB00FF
:101F60009A400748FB1D1B785BB29B080A43C033AD
:101F70009B001A50C046BD4603B090BD00ED00E086
:101F800000E100E080B500AF184B1A68174B8021C4
:101F900049020A431A60164B8322DA60144B7522F9
:101FA0009A62134B00225A60114B10221A60104B98
:101FB000DA680F4B80218A43DA600D4B07229A6062
:101FC0000B4B01225A630A4B9A8801210A439A80DB
:101FD000074BC1221A6300210C20FFF765FF0C207C
:101FE000FFF74CFFC046BD4680BDC04600E005403F
:101FF0000060014090B583B000AF02003960FB1D66
:102000001A70FB1D1B787F2B32D92F4AFB1D1B78C2
:1020100019000F230B40083B9B0806339B00D31885
:1020200004331B68FA1D1278110003220A40D20003
:10203000FF2191400A00D2431A4011003B689B01E6
:10204000FF221A40FB1D1B78180003230340DB000E
:102050009A401D48FB1D1B781C000F232340083BA2
:102060009B080A4306339B00C31804331A6027E019
:10207000164AFB1D1B785BB29B08C0339B009B5824
:10208000FA1D1278110003220A40D200FF2191406C
:102090000A00D2431A4011003B689B01FF221A40FC
:1020A000FB1D1B78180003230340DB009A40074800
:1020B000FB1D1B785BB29B080A43C0339B001A5080
:1020C000C046BD4603B090BD00ED00E000E100E079
:1020D00080B500AFFEF738F8012000F015F8094B85
:1020E0001A68084B802149020A431A6001235B42A7
:1020F00003211800FFF77EFF024B07221A60C0463B
:10210000BD4680BD10E000E080B584B000AF7860CF
:102110000F4B1B687A685A43FA239900100000F0AD
:1021200019FF0300FB60FA6880235B049A4203D91D
:10213000084B094A5A6003E0064BFA68013A5A60B4
:10214000044B00229A60C046BD4604B080BDC04624
:102150004400002010E000E0FFFFFF0080B500AF6A
:10216000134B1A68124B802149020A431A60114B23
:102170009A8804210A439A800E4B9A8C04210A43C0
:102180009A840D4B1B685A1C0B4B1A600A4B1B6838
:10219000092B05D9084B00221A60084B01221A703E
:1021A000044B1A8D04210A431A85C046BD4680BDE2
:1021B00010E000E000800440400000203D000020CE
:1021C00080B582B000AF0200FB1D1A70FB1D1B78AA
:1021D000180000F07BFA0A2000F0A4FAFB1D1B781F
:1021E000180000F047FA0A2000F09CFAC046BD46ED
:1021F00002B080BD80B582B000AF0200FB1D1A7036
:10220000FB1D1B78180000F009FA0A2000F08AFA7A
:10221000FB1D1B78180000F0D5F90A2000F082FAA7
:10222000FB1D1B78180000F051FA0A2000F07AFA22
:10223000FB1D1B78180000F01DFA0A2000F072FA4E
:10224000C046BD4602B080BD80B582B000AF02007E
:10225000FB1D1A70FB1D1B78180000F037FA0A20CE
:1022600000F060FAFB1D1B78180000F0ABF90A20A3
:1022700000F058FAFB1D1B78180000F0CFF90A2077
:1022800000F050FAC046BD4602B080BDB0B584B083
:1022900000AF0200FB1D1A700F257B1901221A7076
:1022A000FB1D1B78180000F035F90A2000F03AFAFF
:1022B000FB1D1B78180000F085F90A2000F032FAA7
:1022C0007C19FB1D1B78180000F0E4F80300237054
:1022D0000A2000F027FAFB1D1B78180000F0CAF94D
:1022E0000A2000F01FFAFB1D1B78180000F03EF9D1
:1022F0007B191B781800BD4604B0B0BD80B582B014
:1023000000AF0200FB1D1A70BB1D0A1C1A70BB1D1A
:102310001B78002B05D1FB1D1B78180000F0D6F9A7
:1023200004E0FB1D1B78180000F078F90A2000F08B
:10233000F9F9FB1D1B78180000F044F90A2000F0A1
:10234000F1F90A2000F0EEF9FB1D1B78180000F0EF
:1023500091F90A2000F0E6F9C046BD4602B080BD02
:1023600080B584B000AF0200FB1D1A70BB1D0A1CB3
:102370001A700F23FB1800221A7030E0BB1D1B7867
:102380005BB2002B05DBFB1D1B78180000F09EF9EB
:1023900004E0FB1D1B78180000F040F90A2000F053
:1023A000C1F9FB1D1B78180000F00CF90A2000F0A1
:1023B000B9F90A2000F0B6F9FB1D1B78180000F0EF
:1023C00059F90A2000F0AEF9BA1DBB1D1B78DB18C5
:1023D00013700F217B181A787B1801321A700F23A3
:1023E000FB181B78072BC9D9C046BD4604B080BD79
:1023F00080B584B000AF0200FB1D1A70FB1D1B7876
:10240000180000F087F80F23FB1800221A7030E044
:102410000A2000F087F90E23FA18FB181B78DB1846
:102420001370FB1D1B78180000F0CCF80A2000F098
:1024300079F9FB1D1B78180000F02CF80300012B24
:1024400006D10E22BB18BA18127801210A431A705D
:102450000A2000F067F9FB1D1B78180000F00AF94C
:102460000A2000F05FF90F217B181A787B180132DF
:102470001A700F23FB181B78072BC9D9FB1D1B787B
:10248000180000F073F80E23FB181B781800BD46E7
:1024900004B080BD80B584B000AF0200FB1D1A708F
:1024A0000F23FB1801221A70FB1D1B78012B0DD086
:1024B000022B15D0002B22D1144B1B688022134015
:1024C00018D10F23FB1800221A7013E00F4B1B6862
:1024D0000822134010D10F23FB1800221A700BE0C2
:1024E0000B4B1B688022134008D10F23FB180022DE
:1024F0001A7003E0C04602E0C04600E0C0460F2369
:10250000FB181B781800BD4604B080BD0040044095
:102510000080044080B582B000AF0200FB1D1A703D
:10252000FB1D1B78012B0BD0022B10D0002B00D0F1
:1025300014E00C4B5A680B4B80218A435A600DE023
:10254000084B5A68074B08218A435A6006E0064B3D
:102550005A68054B80218A435A60C046C046BD4632
:1025600002B080BD004004400080044080B582B0CD
:1025700000AF0200FB1D1A70FB1D1B78012B0BD056
:10258000022B10D0002B00D014E00C4B5A680B4BE0
:1025900080210A435A600DE0084B5A68074B082116
:1025A0000A435A6006E0064B5A68054B80210A43ED
:1025B0005A60C046C046BD4602B080BD00400440DF
:1025C0000080044080B582B000AF0200FB1D1A708D
:1025D000FB1D1B78012B0BD0022B10D0002B00D041
:1025E00014E00C4B5A6A0B4B40210A435A620DE02F
:1025F000084B5A6A074B04210A435A6206E0064B0D
:102600005A6A054B40210A435A62C046C046BD463D
:1026100002B080BD004004400080044080B582B01C
:1026200000AF0200FB1D1A70FB1D1B78012B0BD0A5
:10263000022B10D0002B00D014E00C4B5A6A0B4B2D
:1026400080210A435A620DE0084B5A6A074B082161
:102650000A435A6206E0064B5A6A054B80210A4338
:102660005A62C046C046BD4602B080BD004004402C
:102670000080044080B582B000AF0200FB1D1A70DC
:10268000FB1D1B78012B0BD0022B10D0002B00D090
:1026900014E00C4B9A6A0B4B40210A439A620DE0FE
:1026A000084B9A6A074B04210A439A6206E0064BDC
:1026B0009A6A054B40210A439A62C046C046BD460D
:1026C00002B080BD004004400080044080B582B06C
:1026D00000AF0200FB1D1A70FB1D1B78012B0BD0F5
:1026E000022B10D0002B00D014E00C4B9A6A0B4B3D
:1026F00080210A439A620DE0084B9A6A074B082131
:102700000A439A6206E0064B9A6A054B80210A4307
:102710009A62C046C046BD4602B080BD004004403B
:102720000080044080B582B000AF786002E07B6832
:10273000013B7B607B68002BF9D1C046BD4602B0EF
:1027400080BD000080B500AF144B154A5A60134B92
:1027500000229A60114B124A1A60124B124A5A60B8
:10276000104B00229A600F4B0F4A1A600F4B104A11
:102770005A600E4B0F4A9A600C4B8E2212011A605F
:102780000D4BF02212015A600B4B00229A600A4B4B
:10279000F02212011A60C046BD4680BD00400440D0
:1027A000CC10000000600440F07C00000080044079
:1027B000E30B00000003300000A0044080B582B0AD
:1027C00000AF786039607B68012B0BD004D3022BFB
:1027D0000ED0032B12D017E001223B689A400C4B1D
:1027E0001A6211E001223B689A400A4B1A620BE020
:1027F00001223B689A40084B1A6205E001223B68BF
:102800009A40064B1A62C046C046BD4602B080BD23
:1028100000400440006004400080044000A00440E8
:1028200080B584B000AF786039600023FB607B68BE
:10283000012B0CD004D3022B10D0032B15D01BE09E
:10284000124BDA693B68DA401300FB6014E0104B6E
:10285000DA693B68DA401300FB600DE00D4BDA6982
:102860003B68DA401300FB6006E00B4BDA693B681B
:10287000DA401300FB60C046FB6801221340FB6096
:10288000FB681800BD4604B080BDC046004004404F
:10289000006004400080044000A0044080B500AF08
:1028A00000210020FFF7BCFF0300012B04D1002111
:1028B0000020FFF783FFB2E001210020FFF7B0FF07
:1028C0000300012B04D101210020FFF777FFA6E0D0
:1028D00002210020FFF7A4FF0300012B04D10221F5
:1028E0000020FFF76BFF9AE003210020FFF798FF1D
:1028F0000300012B04D103210020FFF75FFF8EE0CE
:1029000004210020FFF78CFF0300012B04D10421D8
:102910000020FFF753FF82E005210020FFF780FF32
:102920000300012B04D105210020FFF747FF76E0CB
:1029300006210020FFF774FF0300012B04D10621BC
:102940000020FFF73BFF6AE007210020FFF768FF48
:102950000300012B04D107210020FFF72FFF5EE0C9
:1029600008210020FFF75CFF0300012B04D10821A0
:102970000020FFF723FF52E009210020FFF750FF5E
:102980000300012B04D109210020FFF717FF46E0C7
:102990000A210020FFF744FF0300012B04D10A2184
:1029A0000020FFF70BFF3AE00B210020FFF738FF74
:1029B0000300012B04D10B210020FFF7FFFE2EE0C6
:1029C0000C210020FFF72CFF0300012B04D10C2168
:1029D0000020FFF7F3FE22E00D210020FFF720FF8B
:1029E0000300012B04D10D210020FFF7E7FE16E0C4
:1029F0000E210020FFF714FF0300012B04D10E214C
:102A00000020FFF7DBFE0AE00F210020FFF708FFA0
:102A10000300012B03D10F210020FFF7CFFEC0469A
:102A2000BD4680BD80B500AF00210120FFF7F8FE54
:102A30000300012B04D100210120FFF7BFFEB2E00B
:102A400001210120FFF7ECFE0300012B04D101213D
:102A50000120FFF7B3FEA6E002210120FFF7E0FE10
:102A60000300012B04D102210120FFF7A7FE9AE009
:102A700003210120FFF7D4FE0300012B04D1032121
:102A80000120FFF79BFE8EE004210120FFF7C8FE26
:102A90000300012B04D104210120FFF78FFE82E007
:102AA00005210120FFF7BCFE0300012B04D1052105
:102AB0000120FFF783FE76E006210120FFF7B0FE3C
:102AC0000300012B04D106210120FFF777FE6AE005
:102AD00007210120FFF7A4FE0300012B04D10721E9
:102AE0000120FFF76BFE5EE008210120FFF798FE52
:102AF0000300012B04D108210120FFF75FFE52E003
:102B000009210120FFF78CFE0300012B04D10921CC
:102B10000120FFF753FE46E00A210120FFF780FE67
:102B20000300012B04D10A210120FFF747FE3AE000
:102B30000B210120FFF774FE0300012B04D10B21B0
:102B40000120FFF73BFE2EE00C210120FFF768FE7D
:102B50000300012B04D10C210120FFF72FFE22E0FE
:102B60000D210120FFF75CFE0300012B04D10D2194
:102B70000120FFF723FE16E00E210120FFF750FE93
:102B80000300012B04D10E210120FFF717FE0AE0FC
:102B90000F210120FFF744FE0300012B03D10F2179
:102BA0000120FFF70BFEC046BD4680BD80B500AFDB
:102BB00000210220FFF734FE0300012B04D1002185
:102BC0000220FFF7FBFDB2E001210220FFF728FE03
:102BD0000300012B04D101210220FFF7EFFDA6E045
:102BE00002210220FFF71CFE0300012B04D1022169
:102BF0000220FFF7E3FD9AE003210220FFF710FE19
:102C00000300012B04D103210220FFF7D7FD8EE042
:102C100004210220FFF704FE0300012B04D104214C
:102C20000220FFF7CBFD82E005210220FFF7F8FD2F
:102C30000300012B04D105210220FFF7BFFD76E040
:102C400006210220FFF7ECFD0300012B04D1062131
:102C50000220FFF7B3FD6AE007210220FFF7E0FD45
:102C60000300012B04D107210220FFF7A7FD5EE03E
:102C700008210220FFF7D4FD0300012B04D1082115
:102C80000220FFF79BFD52E009210220FFF7C8FD5B
:102C90000300012B04D109210220FFF78FFD46E03C
:102CA0000A210220FFF7BCFD0300012B04D10A21F9
:102CB0000220FFF783FD3AE00B210220FFF7B0FD71
:102CC0000300012B04D10B210220FFF777FD2EE03A
:102CD0000C210220FFF7A4FD0300012B04D10C21DD
:102CE0000220FFF76BFD22E00D210220FFF798FD87
:102CF0000300012B04D10D210220FFF75FFD16E038
:102D00000E210220FFF78CFD0300012B04D10E21C0
:102D10000220FFF753FD0AE00F210220FFF780FD9C
:102D20000300012B03D10F210220FFF747FDC0460E
:102D3000BD4680BD80B500AF00210320FFF770FDC8
:102D40000300012B04D100210320FFF737FD82E0AF
:102D500001210320FFF764FD0300012B04D10121B1
:102D60000320FFF72BFD76E002210320FFF758FD3B
:102D70000300012B04D102210320FFF71FFD6AE0AD
:102D800003210320FFF74CFD0300012B04D1032195
:102D90000320FFF713FD5EE004210320FFF740FD51
:102DA0000300012B04D104210320FFF707FD52E0AB
:102DB00005210320FFF734FD0300012B04D1052179
:102DC0000320FFF7FBFC46E006210320FFF728FD68
:102DD0000300012B04D106210320FFF7EFFC3AE0AA
:102DE00007210320FFF71CFD0300012B04D107215D
:102DF0000320FFF7E3FC2EE008210320FFF710FD7E
:102E00000300012B04D108210320FFF7D7FC22E0A7
:102E100009210320FFF704FD0300012B04D1092140
:102E20000320FFF7CBFC16E00A210320FFF7F8FC94
:102E30000300012B04D10A210320FFF7BFFC0AE0A5
:102E40000B210320FFF7ECFC0300012B03D10B2126
:102E50000320FFF7B3FCC046BD4680BD80B500AF80
:102E60001A4A1368802109010B431360184A13683A
:102E700018490B401360164A136817490B4013603A
:102E8000134A13681F218B4304210B431360104A1C
:102E90001368802149020B4313600D4A1368802197
:102EA0000B4313600A4A13680C490B40C021890088
:102EB0000B431360064A1368802109010B4313601A
:102EC0000A20FEF7A6FEC046BD4680BD00E00540D4
:102ED00000600240FFEFFFFFFF1FFFFFFFF8FFFF53
:102EE00080B584B000AF0200FB1D1A70174A13684A
:102EF00017490B401360154AFB1D1B781F210B401F
:102F0000D9B213681F2001401F2083430B43136075
:102F10000E4A1368802149020B4313600B4A136861
:102F200040210B431360C046084B1B689B06DB0F18
:102F3000DBB2002BF8D0054B5A680E217B181A80A3
:102F40007B181B881800BD4604B080BD006002409D
:102F5000FFFFFEFF002243088B4274D303098B421C
:102F60005FD3030A8B4244D3030B8B4228D3030C59
:102F70008B420DD3FF22090212BA030C8B4202D3FB
:102F80001212090265D0030B8B4219D300E0090A23
:102F9000C30B8B4201D3CB03C01A5241830B8B422C
:102FA00001D38B03C01A5241430B8B4201D34B0315
:102FB000C01A5241030B8B4201D30B03C01A52417A
:102FC000C30A8B4201D3CB02C01A5241830A8B42FF
:102FD00001D38B02C01A5241430A8B4201D34B02E8
:102FE000C01A5241030A8B4201D30B02C01A52414C
:102FF000CDD2C3098B4201D3CB01C01A5241830900
:103000008B4201D38B01C01A524143098B4201D339
:103010004B01C01A524103098B4201D30B01C01A64
:103020005241C3088B4201D3CB00C01A52418308DE
:103030008B4201D38B00C01A524143088B4201D30B
:103040004B00C01A5241411A00D20146524110466B
:103050007047FFE701B5002000F006F802BDC0464A
:103060000029F7D076E770477047C046F8B5C046EC
:10307000F8BC08BC9E467047F8B5C046F8BC08BC12
:103080009E467047960100009C010000A2010000CE
:10309000A8010000AE010000B4010000BA01000068
:1030A000C001000010030000100300001003000026
:1030B000DE020000FE0200000A030000B407000068
:1030C000E8040000B40700003C050000D80500003B
:1030D0008406000060070000B4070000B407000089
:1030E000B4070000B4070000B4070000B4070000F4
:1030F000B4070000B407000012034800642F00C8A2
:10310000C3256300DC4B3D028A00000196AAC07A09
:10311000540000000401C100E62F00C8C3252300AD
:10312000DC4B3D028A00004116AAC07A5400000020
:1031300012034800642F00C8C3256300DC4B3D0226
:103140008A00004116AAC07A54000000600D0000F9
:10315000600D0000600D0000220E0000220E000035
:10316000220E0000AC0E0000AC0E0000AC0E000001
:10317000EE0E000098110000A4110000A411000040
:10318000A4110000A4110000B0110000C81100003B
:10319000BC110000BC110000BC110000BC110000FB
:1031A000C81100000000000032000500E900000026
:0431B000C10000005A
:0400000500000109ED
:00000001FF
